:0300000002004CAF
:200008000000E2FBEAF2802C0000E0FBEAF08024E6B50202EBF62200E2B50202EBF22200DE
:20002800E0B50202EBF02230F6E0A88220F5D3EAC6F582228B822230F6E6A88220F5D980EE
:01004800CFE8
:0300A5000200490D
:0300490002021A96
:2000A800AF827E007D00E511FC30E00F8510F005F07401800225E0D5F0FBFEEC30E10F8536
:2000C80010F005F07401800225E0D5F0FBFDBF01028005BF031F800FEEF4FF55924EF59216
:2000E800EF55914DF59122EEF4FF55B24EF5B2EF55B14DF5B122C030C0317530047531DC3B
:20010800D531FDD530FAD031D03022AF827E01C007C0061200FE1200FEC2B11200FED006FC
:20012800D0077D00EE5F6004D2B18002C2B1EE2EFEC007C006C0051200FED005D006D0073C
:200148000DBD080040DED2B12275820D12011375820A0201137F0020B0FDC0071200FED0CE
:20016800077E00BE08005020C007C0061200FED006D00730B00F8EF005F07401800225E014
:20018800D5F0FB42070E80DBC0071200FED0078F8222AD82AE83AFF012028DFCBC550280D5
:2001A800012274012DFAE43EFB8F048A828B838CF012028DFABA565974052DFAE43EFB8FE2
:2001C800048A828B838CF012028DFC74062DFDE43EFE8D828E838FF012028DFFBF0118BC49
:2001E8000102800ABC02028008BC03258006D2B222D2B322D2B522BF0217BC0102800ABCE5
:2002080002028008BC030A8006C2B222C2B322C2B5227F00751002751101758203C00712D5
:2002280000A87510037511017582031200A87510057511017582031200A8D007C2B47D605C
:200248007E09C007C006C0051200FED005D006D0071DBDFF011EED4E70E8B2B4BF08005023
:20026800178F060FEE2408F9C007C00112015DE582D001D007F780C690000875F040120114
:050288009A7F0080B91F
:06007B00E4787FF6D8FDD9
:200059007900E94400601B7A009002AD780175A000E493F2A308B8000205A0D9F4DAF2759E
:02007900A0FFE6
:200081007800E84400600A790175A000E4F309D8FC7800E84400600C7900900001E4F0A37D
:0400A100D8FCD9FAB4
:0D004C007581111202A9E5826003020049CE
:1C028D0020F71430F6148883A88220F507E6A88375830022E280F7E49322E02280
:0402A9007582002238
:00000001FF
